:03000000020100FA
:03000B000530328B
:10001B00C0E0C0D0D53306C28CC28ED228D0D0D08F
:02002B00E032C1
:1001000075815FE4F594F593F592F591F596F59583
:10011000F5B2F5B1F5B4F5B3F5CAF5C951085125F5
:1001200051887F80710690014271493153D2A9D222
:10013000ABD2AF3028FD858C31858A323180315386
:1001400080F1466D6574722E32372F30382F323081
:10015000323500538EBF758905758BB0758D3C7532
:100160003000758A00758C00753328C228D28ED273
:100170008C2275371075385A7539FF753AEF800C37
:1001800075370085303885313985323A752E20E44F
:10019000F53CF53DF53EF53FF540783A752F04E620
:1001A00033F618D52FF97840752F05E636D4F618B2
:1001B000D52FF8D52EE4783C7937752E05E6C45452
:1001C0000F4430F709E6540F4430F70809D52EEDF7
:1001D0007837752E0AE6B4300B742EF608D52EF556
:1001E000187430F675344675357875363D75412D81
:1001F00075424875437A7FC071067834752E10E6D3
:10020000FF712308D52EF82275BA8074C090FE03C2
:10021000F0E030E0FC740090FE01F0740190FE000C
:10022000F075BA002275BA80740A90FE05F075BAAE
:1002300000225138513851387548007547A041782F
:100240005142754800754710417875482675470139
:10025000417875481075470141787548FF75470129
:1002600041787548467547034178754832754705AA
:10027000417875480575470AD548FDD547FA227576
:1002800049C85138D549FB22C2B7C2B6D234D2359B
:100290001202327F0312030F1202367F0312030F82
:1002A0001202407F0312030F120240120240120298
:1002B000401202401202407F0212030F1202407FDE
:1002C000281203067F081203067F0171067F0612BB
:1002D00003067F0C7106120232120232120232122F
:1002E000023212023212023222E52651F500D2B653
:1002F00000C2B600227C081392B5000000D2B700FD
:10030000C2B700DCF222710C12024022EF7111EF31
:10031000C4339230339231339232339233D234C277
:1003200035801B712912024022EF712EEFC43392E7
:1003300030339231339232339233D234D23551E961
:10034000C23451E9D23451E922E493B4000122FFCE
:050350007123A380F4FD
:00000001FF
